:020000040800F2
:1000000000000220F14A0008952500089725000805
:10001000992500089B2500089D2500080000000088
:100020000000000000000000000000009F25000804
:10003000A125000800000000A3250008A525000850
:10004000414B0008414B0008414B0008414B000860
:10005000414B0008414B0008414B0008414B000850
:10006000414B0008414B0008414B0008414B000840
:10007000414B0008414B0008414B0008414B000830
:10008000414B0008414B0008414B0008414B000820
:10009000414B0008414B0008414B0008414B000810
:1000A000414B0008414B0008414B0008414B000800
:1000B000414B0008414B0008414B0008414B0008F0
:1000C000414B0008414B0008414B0008414B0008E0
:1000D000414B0008AD250008414B0008414B00088A
:1000E000414B0008414B0008414B0008414B0008C0
:1000F000414B0008414B0008414B0008414B0008B0
:10010000414B0008414B000825260008414B0008E0
:10011000414B0008414B0008414B0008414B00088F
:10012000414B0008414B000839260008414B0008AC
:10013000414B00080000000000000000414B000897
:10014000414B0008414B0008414B0008414B00085F
:10015000414B0008414B000849260008414B00086C
:10016000414B0008414B0008414B0008414B00083F
:10017000414B0008414B0008000000000000000057
:08018000414B0008414B00084F
:1001C00010B5054C237833B9044B13B10448AFF391
:1001D00000800123237010BDCC0900200000000026
:1001E00054F5000808B5034B1BB103490348AFF3AE
:1001F000008008BD00000000D009002054F5000870
:1002000081F0004102E000BF83F0004330B54FEAC7
:1002100041044FEA430594EA050F08BF90EA020F34
:100220001FBF54EA000C55EA020C7FEA645C7FEAC7
:10023000655C00F0E2804FEA5454D4EB5555B8BFEA
:100240006D420CDD2C4480EA020281EA030382EA5B
:10025000000083EA010180EA020281EA0303362DED
:1002600088BF30BD11F0004F4FEA01314FF4801CC0
:100270004CEA113102D0404261EB410113F0004FD2
:100280004FEA03334CEA133302D0524263EB430389
:1002900094EA050F00F0A780A4F10104D5F1200E27
:1002A0000DDB02FA0EFC22FA05F2801841F1000182
:1002B00003FA0EF2801843FA05F359410EE0A5F156
:1002C00020050EF1200E012A03FA0EFC28BF4CF087
:1002D000020C43FA05F3C01851EBE37101F000453D
:1002E00007D54FF0000EDCF1000C7EEB00006EEB4A
:1002F0000101B1F5801F1BD3B1F5001F0CD34908D4
:100300005FEA30004FEA3C0C04F101044FEA44522A
:1003100012F5800F80F09A80BCF1004F08BF5FEAB1
:10032000500C50F1000041EB045141EA050130BD91
:100330005FEA4C0C404141EB0101013C28BFB1F5A3
:10034000801FE9D291F0000F04BF01460020B1FAEE
:1003500081F308BF2033A3F10B03B3F120020CDAC1
:100360000C3208DD02F1140CC2F10C0201FA0CF09F
:1003700021FA02F10CE002F11402D8BFC2F1200C04
:1003800001FA02F120FA0CFCDCBF41EA0C019040BA
:10039000E41AA2BF01EB0451294330BD6FEA040403
:1003A0001F3C1CDA0C340EDC04F11404C4F12002EE
:1003B00020FA04F001FA02F340EA030021FA04F300
:1003C00045EA030130BDC4F10C04C4F1200220FA57
:1003D00002F001FA04F340EA0300294630BD21FA95
:1003E00004F0294630BD94F0000F83F4801306BF5B
:1003F00081F480110134013D4EE77FEA645C18BF4F
:100400007FEA655C29D094EA050F08BF90EA020FE5
:1004100005D054EA000C04BF1946104630BD91EADD
:10042000030F1EBF0021002030BD5FEA545C05D1E0
:100430004000494128BF41F0004130BD14F580041F
:100440003CBF01F5801130BD01F0004545F0FE4193
:1004500041F470014FF0000030BD7FEA645C1ABFC8
:10046000194610467FEA655C1CBF0B46024650EAFF
:10047000013406BF52EA033591EA030F41F400212B
:1004800030BD00BF90F0000F04BF0021704730B5B1
:100490004FF4806404F132044FF000054FF0000186
:1004A00050E700BF90F0000F04BF0021704730B547
:1004B0004FF4806404F1320410F0004548BF40421C
:1004C0004FF000013EE700BF42004FEAE2014FEA71
:1004D00031014FEA02701FBF12F07F4393F07F4F4C
:1004E00081F06051704732F07F4208BF704793F04F
:1004F0007F4F04BF41F40021704730B54FF4607462
:1005000001F0004521F000411CE700BF50EA010264
:1005100008BF704730B54FF000050AE050EA01020D
:1005200008BF704730B511F0004502D5404261EB7D
:1005300041014FF4806404F132045FEA915C3FF4BE
:10054000D8AE4FF003025FEADC0C18BF03325FEA5B
:10055000DC0C18BF033202EBDC02C2F1200300FA0C
:1005600003FC20FA02F001FA03FE40EA0E0021FA31
:1005700002F11444BDE600BF53B94AB9002908BFCF
:1005800000281CBF4FF0FF314FF0FF3001F0BEB824
:10059000ADF1080C6DE904CE00F006F8DDF804E0DA
:1005A000DDE9022304B070472DE9F047089E0D46AF
:1005B00004468E46002B40F082808A42174646D978
:1005C000B2FA82F24AB1C2F1200105FA02F320FA2E
:1005D00001F1974041EA030E94404FEA1748230C7B
:1005E000BEFBF8FCB9B208FB1CEE43EA0E430CFB61
:1005F00001F098420AD9FB180CF1FF3580F0168102
:10060000984240F21381ACF1020C3B441B1AA4B295
:10061000B3FBF8F008FB103344EA034400FB01F19C
:10062000A14209D93C1900F1FF3380F00181A142B8
:1006300040F2FE8002383C44641A40EA0C4000213B
:100640001EB1D4400023C6E90043BDE8F08702B9DB
:10065000FFDEB2FA82F2002A4FD1CB1B4FEA174ECF
:100660001FFA87F80121B3FBFEFC250C0EFB1C339F
:1006700045EA034508FB0CF3AB4207D97D190CF1A1
:10068000FF3002D2AB4200F2E7808446ED1AA3B2FB
:10069000B5FBFEF00EFB105543EA054408FB00F8DD
:1006A000A04507D93C1900F1FF3302D2A04500F262
:1006B000D7801846A4EB080440EA0C40C0E78B4200
:1006C00008D9002E00F0AF800021C6E900050846D9
:1006D000BDE8F087B3FA83F100294BD1AB4202D3D6
:1006E000824200F2B780841A65EB030301209E4624
:1006F000002EAAD0C6E9004EA7E7C2F1200C01FAED
:1007000002F3974020FA0CF04FEA174E21FA0CFC46
:100710001843BCFBFEF1050C0EFB11CC1FFA87F849
:1007200045EA0C4501FB08F3AB4204FA02F409D98F
:100730007D1901F1FF3C80F08B80AB4240F2888054
:1007400002393D44EB1A85B2B3FBFEF00EFB1033C9
:1007500045EA034500FB08F3AB4207D97D1900F1D8
:10076000FF3C71D2AB426FD902383D44EB1A40EAEC
:10077000014178E7C1F1200C8B4022FA0CF71F43AE
:1007800020FA0CF405FA01F34FEA174E25FA0CF59E
:100790001C43230CB5FBFEF91FFA87F80EFB195515
:1007A00043EA054509FB08FAAA4502FA01F200FAF4
:1007B00001F308D97D1909F1FF3047D2AA4545D97F
:1007C000A9F102093D44A5EB0A05A4B2B5FBFEF070
:1007D0000EFB105544EA054400FB08F8A04507D974
:1007E0003C1900F1FF352DD2A0452BD902383C44ED
:1007F00040EA0940A4EB0804A0FB02894C45C64628
:100800004D4619D316D05EB1B3EB0E0264EB05046E
:1008100004FA0CFCCA404CEA0202CC40C6E90024AF
:100820000021BDE8F087314630460EE7AC46EDE6E4
:10083000184601E74345E6D2B8EB020E69EB07051F
:100840000138E0E72846D3E760468FE78146BAE7FC
:10085000614677E708464BE7ACF1020C3D4415E7EB
:1008600002383C4426E700BF03685A004CBF43F0FF
:10087000004323F000431844704700BF2DE9F843BC
:1008800029B34F1E044615463E464FF0000808EBBC
:10089000060101EBD171491004EBC1094846FFF78D
:1008A000E3FF0346C80008308F42204409D0AB4222
:1008B00009D8FFF7D9FF0138A8420AD201F101088F
:1008C000E5E7AB4205D9884501D04E1EDFE74FF082
:1008D00000094846BDE8F883012807D0022807D060
:1008E000044B00280CBF1846002070470248704790
:1008F000024870479D0F0008A10F0008A50F0008CF
:1009000030B5234B83B004468D1E3BB301A9284666
:10091000AFF30080E8B101992A46FFF7AFFF014627
:10092000B8B1FFF7A1FF4B68A064012B2BD0002BBF
:1009300001F1040023DBFFF797FF0023C4E9130351
:100940000368002B10DBFFF78FFF2061002003B04E
:1009500030BD00230920236103B030BD0D490E488E
:10096000091AC9100191D7E7C3F30360FFF7B4FF79
:100970000028206114BF0020092003B030BD0123EE
:10098000C4E91303DCE7002323610520DFE700BF90
:100990000000000098FD000868FC00080368DA0702
:1009A00010B5044606D49B0700F1480009D500F0B5
:1009B0004BFC2368590709D51A070ED5DB0613D55A
:1009C00010BD00F039FC23685907F5D404F1D000BC
:1009D00000F042FC23681A07F0D404F5A87000F078
:1009E00043FC2368DB06EBD404F5E870BDE8104057
:1009F00000F07EBC0346006800B11844704700BF99
:100A000009207047704700BF70B504460E46316C30
:100A10002046FFF775FF054688B9336C636132469F
:100A200023692146012098470828F0D0072806D1DD
:100A30002846316CFFF7E6FF301D00F0F1FB04F0B3
:100A4000ADF900BF2DE9F0470D1D064614460FCD48
:100A5000ADF5727D0DF10C0CACE80F000FCDACE8DC
:100A60000F000FCDACE80F0095E80F0002ADF7685E
:100A7000D6F818808CE80F0000232B6021E02B6C47
:100A800073614FF4F07229467AA800F041FE336991
:100A90007AAA314650469847889BCDE900582146AE
:100AA0006B648146334632460120B8470446E8B9B4
:100AB0004FF4F0727AA9284600F02AFEB9F1080F27
:100AC0001BD1296C3046FFF71BFF09345FFA84FA0B
:100AD00081460028D3D0AB6B4AF01001CDE9005815
:100AE00032466B6401203346B84708B14FF009091C
:100AF00048460DF5727DBDE8F087B9F1070FF5D1D5
:100B00002046296CFFF77EFF03A800F089FB00BF99
:100B1000406C7047F0B5CB6B0B640E1D0F4605465D
:100B20000FCEF9B001AC0FC40FCE0FC40FCE0FC45F
:100B300096E80F004FF0FF3684E80F00009606E0BD
:100B40002B696A46294698470828044608D1109917
:100B50002846FFF7D5FE0028F2D0092079B0F0BD75
:100B60006846FFF71BFF062CF7D139462846FFF7EA
:100B70004BFF00BF30B4DD6BC160826119461D645C
:100B8000002230BC5EE700BF70B5C66843690B64E5
:100B9000AEB903690A4604460D460146022098474D
:100BA000072805D008280FD129462046FFF72CFF3B
:100BB0003046296CFFF726FF281D00F031FB01228B
:100BC000FFF740FF04F0EAF804F0E8F8C2681AB151
:100BD000CA6B0A64002235E79CE700BF704700BF7C
:100BE000836801460BB1012018477047012912D0D4
:100BF00009D873B90F2A0CD800EB82021846536843
:100C0000009A136070470339012994BF0120022024
:100C10007047022070470846704700BF10B584B087
:100C2000002303AC0A4600941946FFF7DFFF039840
:100C300004B010BD012912D009D873B90F2A0CD8FD
:100C400000EB8200009A1268426018467047033930
:100C5000012994BF012002207047022070470846F6
:100C6000704700BF10B584B0002303AC039200941A
:100C70000A461946FFF7DEFF04B010BDF0B5D36B8E
:100C80001364151D8C4606460FCDADF50F7D17ACD0
:100C90000FC40FCD0FC40FCD0FC495E80F004FF058
:100CA000FF3784E80F006546169710E0FFF7DAFF7C
:100CB000294616A8B047034616AA6946082083B9F4
:100CC000049B9847052804460CD0092809D026998A
:100CD0006846FFF715FE03466A460C2116A8002B4E
:100CE000E4D0092416A8FFF759FE20460DF50F7D24
:100CF000F0BD00BF2DE9F04FCC6C89B00D4654F823
:100D0000041B0694174600F003081E46002B79D0FA
:100D10000B0CDAB209048DF81D30022304EB8204B7
:100D200005918DF81C302B6DB8F1020F08BFAC6B2C
:100D300013F001030CD0384605A900F073FB18B975
:100D4000082009B0BDE8F08F092009B0BDE8F08F98
:100D5000D4F800A0BAF1000FEDD0019300F0080321
:100D60000293022E4AD0B4F800A0B4F802900434E2
:100D7000AA6C29F0010B0F2138469344FFF74EFF70
:100D8000834539D82AF001025A44824294BF002098
:100D900001204FEA490303F002030AF0010A43EA83
:100DA0000A03012B49D0022B32D0002BCCD1B8F151
:100DB000000F02D0002840F0CD800434D4F800A009
:100DC000BAF1000FCDD105A9384600F02BFB002861
:100DD000BAD1019B002BB3D00F213846FFF71EFF7D
:100DE0000E2102463846FFF73DFF38466A4A0F217A
:100DF000FFF738FF0720A8E70020CAE7D4F80490DF
:100E00000834B5E7090203230591ADF81C308AE7E1
:100E1000236823F0004BB8F1000F45D128B1029AA6
:100E2000002A5CD0BBF1000F74D0002B00DA043430
:100E30000BF1010B04EB8B04C0E7B8F1000F19D1E3
:100E4000B0B1D4E90023991C4FEAD2723FF47CAFD1
:100E500005F158010133049100F09080201DFFF747
:100E6000C9FD04AB01462846AFF3008000285BD1E2
:100E70000834A3E70D213846D5F82090FFF7CEFEC1
:100E80008145F5D1AB6A9C42F2D12046FFF7ECFCDC
:100E90000F2102463846FFF7E5FE38462A46002174
:100EA000FFF7E0FE072050E70D213846D5F82090E7
:100EB000FFF7B4FE814501D02368B6E7AB6A9C42D8
:100EC000FAD104220021C5E90B12A318C5F828B0F5
:100ED0006B6323688B4259DB01230193A8E705F17B
:100EE0005803CDF80C8004F1040AB04691461E4622
:100EF0000DE00496FFF77EFD04AB01460022284674
:100F0000AFF3008009F101090AF1040AE8B9D945F3
:100F10005046EED138460D21FFF780FE049B286233
:100F2000C5E90934062010E781460D213846FFF750
:100F300075FEB9F1020F286225D12B46049A43F8B9
:100F40002C2F6B62AC620620FFE646462368DDF874
:100F50000C806AE72046FFF787FC04340246AC6346
:100F600028461446AFF3008000283FF4EDAE384623
:100F700022460F21FFF776FE0720E6E638460D21D0
:100F8000FFF74CFE2862049B6B62DBE70BF101006C
:100F900004EB80007AE700BF000000000023A9E610
:100FA0000123A7E60223A5E62DE9F0430646C3B0D8
:100FB00015461C46042900F2B980DFE801F09A5377
:100FC000B7290300002C40F0B180102A00F2AE8057
:100FD0000368D80600F1F38020AF384600F092F99C
:100FE000B06B0023012404FA03F22A42014604D024
:100FF00051F8042B47F8232008460133042BF2D183
:10100000B063384600F074F9002043B0BDE8F083C7
:10101000032C40F08B8094B204EB1243102B4FEA68
:10102000124500F2838003681F0700F1D08020AFD3
:10103000384600F03BF907EBC501B56B54B10B46E0
:10104000E81A01EBC401E4001A5843F8042B8B4260
:10105000FAD125443846B56300F006F9002043B0C4
:10106000BDE8F083012C4FEA124895B25AD0052C06
:101070005CD108EB0509B9F1200F57D8B8F10F0F73
:1010800077D9A946002D40F08880B36B6DB320AFAF
:101090004FF0000907EBC807043F03EBC50553F801
:1010A000041B47F8041FAB42F9D1B9F1000F0FD070
:1010B0006F464146102938BF102107EBC101843922
:1010C00003EBC90553F8040B41F8040FAB42F9D107
:1010D000012C00F08480B8F10F0FB56345D9B9F148
:1010E000000F02D0684600F0B7F8002043B0BDE81A
:1010F000F083DCB9876B2346012094B206F1040C1F
:1011000000FA03F22242394604D051F8042B4CF87D
:1011100023200F460133102BF2D115F40050E4D1F7
:10112000B76304E008EB0503102B03D9022043B09A
:10113000BDE8F083B8F10F0FF8D83368DA0706D5A9
:10114000304623F0030340F8483B00F079F820AF25
:10115000384600F075F8B36B002D99D11D46043563
:10116000B563384600F068F8BFE720A800F06CF8D7
:10117000B5E7B9F1100F40D9A9F110093368D907C3
:1011800008D523F00103304643F0020340F8483B02
:1011900000F05EF8B9F1000F32D033685A0720D45E
:1011A000B8F10F0F25D96F463846C8F1100500F089
:1011B00057F8002DB36B7FF77CAF20AF6AE723F0C1
:1011C0001003336006F5E87000F09CF804E723F0A4
:1011D0000803036000F5A87000F068F827E720AF67
:1011E000BDE7304623F0040340F8D03B00F038F868
:1011F000D6E720A800F02CF8D5E74FF00009BDE7AE
:10120000B8F10F0F3FF641AF20AF384600F020F89D
:10121000B36B002D7FF43CAF384600F015F864E75F
:1012200000F1340191E838009C46A6464CF8045D74
:1012300090E8FF0FE54600BD90EC210B704700BF22
:1012400080EC210B704700BF90EC200B704700BF73
:1012500080EC200B704700BFD0EC200B704700BF24
:10126000C0EC200B704700BFF0EC0201F0EC021163
:10127000F0EC0221F0EC0231F0EC0241F0EC025112
:10128000F0EC0261F0EC0271F0EC0281F0EC029102
:10129000F0EC02A1F0EC02B1F0EC02C1F0EC02D1F2
:1012A000F0EC02E1F0EC02F1704700BFE0EC02016B
:1012B000E0EC0211E0EC0221E0EC0231E0EC024152
:1012C000E0EC0251E0EC0261E0EC0271E0EC028142
:1012D000E0EC0291E0EC02A1E0EC02B1E0EC02C132
:1012E000E0EC02D1E0EC02E1E0EC02F1704700BF7B
:1012F000B0FC0181B0FC0191B0FC01A1B0FC01B1D6
:10130000704700BFA0FC0181A0FC0191A0FC01A1DD
:10131000A0FC01B1704700BFEC4600B52DE90050BC
:101320002DE9FF1F4FF000032DE90C0001A9FFF785
:10133000F1FBDDF840E012B0704700BFEC4600B5AD
:101340002DE900502DE9FF1F4FF000032DE90C009F
:1013500001A9FFF719FCDDF840E012B0704700BFAB
:10136000EC4600B52DE900502DE9FF1F4FF00003BA
:101370002DE90C0001A9FFF729FCDDF840E012B0CF
:10138000704700BFEC4600B52DE900502DE9FF1F66
:101390004FF000032DE90C0001ABFFF7EBFBDDF88C
:1013A00040E012B0704700BFEC4600B52DE9005098
:1013B0002DE9FF1F4FF000032DE90C0001AAFFF7F4
:1013C0005DFCDDF840E012B0704700BF027A7AB9E8
:1013D000437AA3B14268013B10B4437213680321FE
:1013E000141D01721A024460026010BC180E70478E
:1013F0000368013A02721A020260180E7047B020A8
:10140000704700BF00B585B003AA002300921946BB
:101410000C22FFF7EBFB039805B05DF804FB00BF5F
:10142000F0E700BF2DE9F043054685B00E464FF0CA
:1014300000083046FFF7CAFFB028044600F0B2802B
:10144000070620D500F0F003802B4DD0902B36D02E
:10145000A02B60D0B02B74D0C02B00F08B8000F09C
:10146000F803D02B0BD100F00702013242F4002226
:10147000052301212846FFF797FD0028D9D0092030
:1014800005B0BDE8F0830DF10C0900231946870073
:10149000CDF800900D222846FFF7A8FBFFB2039B72
:1014A000CDF80090043760064CBFDF1BFF18002307
:1014B00019460D2228460397FFF7BCFBB9E700F059
:1014C0000D030D2BDBD003AF002300F00F021946F4
:1014D00000972846FFF78AFB0023009719460D2244
:1014E0002846FFF7A7FBA4E73046FFF76FFF24026B
:1014F0002043B0F5004FC2D004010023A2B2194628
:101500002846FFF751FD0028B9D114F4004F18BF49
:101510004FF001088DE7C24302F007034FF47F62EA
:101520001A41010702F47F624FF0000348BF42F402
:10153000804219462846FFF737FD00283FF479AF6F
:101540009DE7B12833D0B22800F08B80B32839D082
:1015500000F0FC03B42B92D000F00702013201230B
:1015600042F4002219462846FFF71EFD00283FF4EA
:1015700060AF84E7C62842D0C7284CD000F0F803FB
:10158000C02B5BD0C82860D0C9287FF478AF304624
:10159000FFF71CFF020300F00F0002F4702201307D
:1015A000024365E7B8F1000F18D0002068E7304625
:1015B000FFF70CFF024600283FF461AF10F0F00384
:1015C000D0D05CE73046FFF701FF010300F00F00C9
:1015D00001F47021421C01230A43C3E703AC4346D4
:1015E0000E22414600942846FFF700FB009428464F
:1015F00043460F224146FFF71DFB404640E7304679
:10160000FFF7E4FE010300F00F0001F47021421C1B
:1016100003230A43A6E73046FFF7D8FE0246002818
:101620003FF42DAF10F0F0037FF429AF04212846DA
:10163000FFF7BAFC00283FF4FCAE20E700F00F02F1
:101640000132032342F420228CE73046FFF7BEFE2E
:1016500000F0F00200F00F031032013343EA0232CF
:1016600006E700230DF10C090D221946CDF8009074
:101670002846FFF7BBFA3046FFF7A8FE02064FF0F8
:1016800002070CD5039B00F07F00B84003443046AE
:101690000393FFF79BFE030607F10707F2D4039BB2
:1016A000CDF8009000F07F0403F50172BC400023E8
:1016B000144419460D2228460394FFF7BBFAB8E6F6
:1016C00010B5C26C84B0536803248DF80C401B0223
:1016D00002F108040846D279019301A902948DF819
:1016E0000D20FFF79FFE04B010BD00BF08B5FFF747
:1016F00097FE806C08BD00BF08B5FFF791FEC06C77
:10170000C379023300EB830008BD00BF704700BF00
:10171000844641EA000313F003036DD1403A41D3FC
:1017200051F8043B40F8043B51F8043B40F8043BBB
:1017300051F8043B40F8043B51F8043B40F8043BAB
:1017400051F8043B40F8043B51F8043B40F8043B9B
:1017500051F8043B40F8043B51F8043B40F8043B8B
:1017600051F8043B40F8043B51F8043B40F8043B7B
:1017700051F8043B40F8043B51F8043B40F8043B6B
:1017800051F8043B40F8043B51F8043B40F8043B5B
:1017900051F8043B40F8043B51F8043B40F8043B4B
:1017A000403ABDD2303211D351F8043B40F8043BEB
:1017B00051F8043B40F8043B51F8043B40F8043B2B
:1017C00051F8043B40F8043B103AEDD20C3205D3FB
:1017D00051F8043B40F8043B043AF9D2043208D0F3
:1017E000D2071CBF11F8013B00F8013B01D30B8865
:1017F00003806046704700BF082A13D38B078DD043
:1018000010F003038AD0C3F10403D21ADB071CBF14
:1018100011F8013B00F8013B80D331F8023B20F87E
:10182000023B7BE7043AD9D3013A11F8013B00F8B7
:10183000013BF9D20B7803704B7843708B7883703F
:10184000604670470000000000000000000000003B
:101850000000000000000000000000000000000088
:10186000A2EB0300704700BF02780B78012A28BF63
:101870009A42F5D16DE9044540EA0104CDE90267D9
:101880006FF0000C4FEA447212B380EA010414F0C6
:10189000070F6AD100F0070420F0070004F00305E9
:1018A00021F007014FEAC505F0E8042314F0040F06
:1018B000F1E804670CFA05F462EA040266EA040639
:1018C0000AD063EA0403624667EA0407664603E057
:1018D000F0E80423F1E8046782FA4CF582EA060492
:1018E000A4FA8CF46CBB83FA4CF583EA0705A5FADD
:1018F0008CF595B950E9022351E9026782FA4CF55B
:1019000082EA0604A4FA8CF483FA4CF583EA07050C
:10191000A5FA8CF52543DBD09CB92DBAB5FA85F430
:1019200024F0070427FA04F1DDE9026723FA04F33F
:1019300003F0FF0001F0FF01FDE80445A0EB01000A
:10194000704724BAB4FA84F424F0070426FA04F1A8
:10195000DDE9026722FA04F202F0FF0001F0FF0164
:10196000FDE80445A0EB0100704714F0030F3CD1E3
:1019700010F0030428D150F8082B51F8083B82FAE4
:101980004CF582EA0305A5FA8CF55DB950F8042CF4
:1019900051F8043C82FA4CF582EA0305A5FA8CF56D
:1019A000002DE8D02DBAB5FA85F424F0070423FA07
:1019B00004F122FA04F202F0FF0001F0FF01FDE859
:1019C0000445A0EB010070474FEAC40420F0030077
:1019D00050F8082B21F0030151F8083B0CFA04F4ED
:1019E00062EA040263EA0403C9E710F003041AD0B0
:1019F000A1EB040120F00300E40750F8042B06D00B
:101A00000FD28B785FFAA2F4E41A06D12BB1CB780F
:101A10005FFAB2F4E41A00D11BB920465DF8104B0E
:101A2000704701F1040150F8042BCC0721F00301A9
:101A300051F8043B48D824D222F07F4482FA4CF576
:101A400094EA1325A5FA8CF50AD165B951F8043B3F
:101A500084EA0204B4EB036F0ED150F8042BEBE7D9
:101A60004FEA132355E035F07F454DD10878FDE866
:101A70000445C0F1000070474FEA126203F0FF0313
:101A800047E002EA1C4482FA4CF594EA1345A5FAB1
:101A90008CF50AD165B951F8043B84EA0204B4EB31
:101AA000034F0CD150F8042BEBE74FEA134330E01F
:101AB00015EA1C4528D10B884FEA124229E04FEA6B
:101AC000124203EA1C4324E002F0FF0482FA4CF5C0
:101AD00094EA1365A5FA8CF50AD165B951F8043B6F
:101AE00084EA0204B4EB032F09D150F8042BEBE78E
:101AF0004FEA13630DE015F0FF0F05D10B684FEAB5
:101B0000122223F07F4304E04FF00000FDE804457B
:101B1000704712BA1BBA82FA4CF482EA0304A4FAA0
:101B20008CF5B5FA85F402FA04F203FA04F34FEAED
:101B30001260FDE80445A0EB136070470000000050
:101B400090F800F06DE9024520F007016FF0000CFD
:101B500010F0070491F820F040F049804FF00004A5
:101B60006FF00700D1E9002391F840F000F1080080
:101B700082FA4CF2A4FA8CF283FA4CF3A2FA8CF3B8
:101B80004BBBD1E9022382FA4CF200F10800A4FA1F
:101B90008CF283FA4CF3A2FA8CF3E3B9D1E9042373
:101BA00082FA4CF200F10800A4FA8CF283FA4CF3AA
:101BB000A2FA8CF37BB9D1E9062301F1200182FA64
:101BC0004CF200F10800A4FA8CF283FA4CF3A2FA6A
:101BD0008CF3002BC6D0002A04BF04301A4612BA78
:101BE000B2FA82F2FDE8024500EBD2007047D1E97B
:101BF000002304F00305C4F100004FEAC50514F00A
:101C0000040F91F840F00CFA05F562EA05021CBFDA
:101C100063EA050362464FF00004A9E700000000F4
:101C200001F0FF01102A2BDB10F0070F08D010F88D
:101C3000013B013A8B422DD010F0070F42B3F6D191
:101C4000F0B441EA012141EA014122F007047FF0AA
:101C500000070023F0E80256083C85EA010586EA01
:101C6000010685FA47F5A3FA87F586FA47F6A5FA3D
:101C700087F68EB9EED1F0BC01F0FF0102F0070249
:101C800032B110F8013B013A83EA010313B1F8D1F4
:101C90000020704701387047002D06BF35460338D5
:101CA000073815F0010F07D1013015F4807F02BF0E
:101CB000013015F4C03F0130F0BC0138704700BF5F
:101CC00070B54FF0FF0C4CF4E06C1CEA11541DBFD2
:101CD0001CEA135594EA0C0F95EA0C0F00F0DEF89D
:101CE0002C4481EA030621EA4C5123EA4C5350EA82
:101CF000013518BF52EA033541F4801143F48013D3
:101D000038D0A0FB02CE4FF00005E1FB02E506F063
:101D10000042E0FB03E54FF00006E1FB03569CF0B8
:101D2000000F18BF4EF0010EA4F1FF04B6F5007FBE
:101D300064F5407404D25FEA4E0E6D4146EB060630
:101D400042EAC62141EA55514FEAC52040EA5E50B9
:101D50004FEACE2EB4F1FD0C88BFBCF5E06F1ED863
:101D6000BEF1004F08BF5FEA500E50F1000041EB9A
:101D7000045170BD06F0004646EA010140EA020047
:101D800081EA0301B4EB5C04C2BFD4EB0C0541EA69
:101D9000045170BD41F480114FF0000E013C00F37E
:101DA000AB8014F1360FDEBF002001F0004170BDA2
:101DB000C4F10004203C35DA0C341BDC04F11404BB
:101DC000C4F1200500FA05F320FA04F001FA05F247
:101DD00040EA020001F0004221F0004110EBD37014
:101DE00021FA04F642EB06015EEA430E08BF20EA40
:101DF000D37070BDC4F10C04C4F1200500FA04F3E3
:101E000020FA05F001FA04F240EA020001F0004174
:101E100010EBD37041F100015EEA430E08BF20EAE7
:101E2000D37070BDC4F1200500FA05F24EEA020E2F
:101E300020FA04F301FA05F243EA020321FA04F05E
:101E400001F0004121FA04F220EA020000EBD37015
:101E50005EEA430E08BF20EAD37070BD94F0000F15
:101E60000FD101F00046400041EB010111F4801F49
:101E700008BF013CF7D041EA060195F0000F18BFFA
:101E8000704703F00046520043EB030313F4801F36
:101E900008BF013DF7D043EA0603704794EA0C0FF0
:101EA0000CEA135518BF95EA0C0F0CD050EA410606
:101EB00018BF52EA4306D1D181EA030101F0004183
:101EC0004FF0000070BD50EA410606BF10461946AB
:101ED00052EA430619D094EA0C0F02D150EA0136B7
:101EE00013D195EA0C0F05D152EA03361CBF1046F8
:101EF00019460AD181EA030101F0004141F0FE4197
:101F000041F470014FF0000070BD41F0FE4141F41A
:101F1000780170BD70B54FF0FF0C4CF4E06C1CEA1A
:101F200011541DBF1CEA135594EA0C0F95EA0C0FCF
:101F300000F0A7F8A4EB050481EA030E52EA03358A
:101F40004FEA013100F088804FEA03334FF08055AB
:101F500045EA131343EA12634FEA022245EA1115D8
:101F600045EA10654FEA00260EF000419D4208BF89
:101F7000964244F1FD0404F5407402D25B084FEA36
:101F80003202B61A65EB03055B084FEA32024FF4E2
:101F900080104FF4002CB6EB020E75EB030E22BF3F
:101FA000B61A754640EA0C005B084FEA3202B6EBFF
:101FB000020E75EB030E22BFB61A754640EA5C00AE
:101FC0005B084FEA3202B6EB020E75EB030E22BF3E
:101FD000B61A754640EA9C005B084FEA3202B6EB3F
:101FE000020E75EB030E22BFB61A754640EADC00FE
:101FF00055EA060E18D04FEA051545EA16754FEA60
:1020000006164FEAC30343EA52734FEAC2025FEA7D
:102010001C1CC0D111F4801F0BD141EA00014FF00C
:1020200000004FF0004CB6E711F4801F04BF0143DD
:102030000020B4F1FD0C88BFBCF5E06F3FF6AFAEF9
:10204000B5EB030C04BFB6EB020C5FEA500C50F189
:10205000000041EB045170BD0EF0004E4EEA11310C
:1020600014EB5C04C2BFD4EB0C0541EA045170BD13
:1020700041F480114FF0000E013C90E645EA060E57
:102080008DE60CEA135594EA0C0F08BF95EA0C0F85
:102090003FF43BAF94EA0C0F0AD150EA01347FF4CD
:1020A00034AF95EA0C0F7FF425AF104619462CE7A4
:1020B00095EA0C0F06D152EA03353FF4FDAE104607
:1020C000194622E750EA410618BF52EA43067FF458
:1020D000C5AE50EA41047FF40DAF52EA43057FF4E8
:1020E000EBAE12E74FF0FF3C06E000BF4FF0010CF3
:1020F00002E000BF4FF0010C4DF804CD4FEA410C57
:102100007FEA6C5C4FEA430C18BF7FEA6C5C1BD023
:1021100001B050EA410C0CBF52EA430C91EA030FA4
:1021200002BF90EA020F0020704710F1000F91EA01
:10213000030F58BF994208BF90422CBFD8176FEACF
:10214000E37040F0010070474FEA410C7FEA6C5C9D
:1021500002D150EA013C07D14FEA430C7FEA6C5CA4
:10216000D6D152EA033CD3D05DF8040B704700BFD0
:102170008446104662468C461946634600E000BF1E
:1021800001B5FFF7B7FF002848BF10F1000F01BDF0
:102190004DF808EDFFF7F4FF0CBF012000205DF8BB
:1021A00008FB00BF4DF808EDFFF7EAFF34BF012040
:1021B00000205DF808FB00BF4DF808EDFFF7E0FFD9
:1021C00094BF012000205DF808FB00BF4DF808ED2A
:1021D000FFF7CEFF94BF012000205DF808FB00BF91
:1021E0004DF808EDFFF7C4FF34BF012000205DF873
:1021F00008FB00BF4FEA410C7FEA6C5C02D150EA59
:10220000013C0AD14FEA430C7FEA6C5C02D152EAEE
:10221000033C02D14FF0000070474FF001007047BF
:102220004FEA410212F5001215D211D56FF47873FE
:10223000B3EB625212D94FEAC12343F0004343EAA1
:10224000505311F0004F23FA02F018BF404270477C
:102250004FF00000704750EA013005D111F0004006
:1022600008BF6FF0004070474FF00000704700BF9C
:102270004A0011D212F5001211D20DD56FF4787305
:10228000B3EB62520ED44FEAC12343F0004343EA5A
:10229000505323FA02F070474FF00000704750EAA5
:1022A000013002D14FF0FF3070474FF0000070470F
:1022B0004FEA4102B2F1E04324BFB3F5001CDCF168
:1022C000FE5C0DD901F0004C4FEAC0024CEA5070A0
:1022D000B2F1004F40EB830008BF20F001007047CF
:1022E00011F0804F21D113F13872BCBF01F00040D2
:1022F000704741F480114FEA5252C2F11802C2F104
:10230000200C10FA0CF320FA02F018BF40F0010084
:102310004FEAC1234FEAD32303FA0CFC40EA0C0036
:1023200023FA02F34FEA4303CCE77FEA625307D173
:1023300050EA01331EBF4FF0FE4040F440007047AA
:1023400001F0004040F0FE4040F40000704700BF44
:1023500038B505460C462846214600220023FFF7E3
:1023600021FF28B928462146BDE8384000F00AB8C8
:10237000284604F1004100F005F8404261EB4101BC
:1023800038BD00BFD0B50C4B002206460F46FFF704
:1023900097FCFFF76DFF0446FEF774F8074B002229
:1023A000FFF78EFC02460B4630463946FDF72CFF00
:1023B000FFF75EFF2146D0BD0000F03D0000F04178
:1023C00010B582B0002401940D4B1A6B42F48002C8
:1023D0001A631B6B03F480030193019B22460321C4
:1023E0003A2000F06FFB3A2000F0A0FB22460321C8
:1023F000462000F067FB462000F098FB02B010BDBD
:102400000038024070B588B0002403940494059409
:102410000694079400941D4B1A6B42F004021A6351
:102420001A6B02F004020092009A01941A6B42F0B7
:1024300080021A631A6B02F080020192019A0294E0
:102440001A6B42F001021A631B6B03F00103029343
:10245000029B0F4D22464FF48071284600F0DFFEAC
:102460004FF40043039304940126059603A92846DC
:1024700000F0E4FD4FF480730393049605940694F2
:1024800003A9284600F0DAFD08B070BD003802400C
:102490000008024072B6FEE700B595B03022002178
:1024A00008A802F077FF0023039304930593069393
:1024B000079301931F4A116C41F080511164126C13
:1024C00002F080520192019A02931B4A116841F472
:1024D00080411160126802F480420292029A022244
:1024E000089201210B9110210C910E920F93082359
:1024F0001093A823119312920423139308A800F0B9
:1025000095FE98B90F2303930223049300230593A8
:102510004FF4A05306934FF480530793052103A86B
:1025200001F0D0F820B915B05DF804FBFFF7B2FF59
:10253000FFF7B0FF003802400070004008B500F01F
:102540006FFAFFF7A9FFFFF75DFFFFF739FF00F014
:10255000B3F800F08DF902F091FAFEE782B00021A5
:1025600000910B4B5A6C42F480425A645A6C02F44C
:1025700080420092009A01911A6C42F080521A64D3
:102580001B6C03F080530193019B02B0704700BFA6
:1025900000380240FEE7FEE7FEE7FEE7FEE7704791
:1025A0007047704708B500F055FA08BDF0B583B024
:1025B000174B1B681A6812F0100F04D1144801F071
:1025C0002FFF03B0F0BD002601961A6801925B68E8
:1025D0000193019B0E4F384601F029FE0D4B1B68FD
:1025E0005B68C3F18003DBB20B4C237021780B4D89
:1025F0000B4B1B682846984722783146284602F044
:10260000C9FE267080222946384602F0F5F8D5E743
:10261000F80A0020380A00203C0B0020400B002064
:10262000340A002008B5034801F099F902F042FA93
:1026300008BD00BFEC09002008B5024800F010FCFE
:1026400008BD00BF380A002008B5024800F008FCA9
:1026500008BD00BF980A00200120704708B502F0AD
:10266000A5FB162303604FF0FF3008BD08B54FF0FF
:10267000FF31FFF7F3FFFEE708B503460B4A126888
:1026800042B10A4A106803446A46934206D8074A90
:10269000136008BD054A06491160F2E702F086FBA7
:1026A0000C2303604FF0FF30F3E700BFE809002080
:1026B000400C00207047000000B587B00023029353
:1026C000039304930593009301931548154A026000
:1026D00053224260836042F20F72C26003618361E1
:1026E00001F05EFA90B94FF48053029302A90C48AE
:1026F00001F08DFA68B900230093019369460848F8
:1027000001F004FB40B907B05DF804FBFFF7C2FE1F
:10271000E9E7FFF7BFFEEEE7FFF7BCFEF3E700BF18
:10272000EC090020000C004002680E4B9A4200D0D9
:10273000704700B583B00021019103F50B331A6C8B
:1027400042F008021A641B6C03F008030193019B1A
:102750000A46322000F0B6F9322000F0E7F903B063
:102760005DF804FB000C004030B589B000230393F2
:102770000493059306930793026803F1804303F5DE
:1027800088339A4201D009B030BD04460025019536
:1027900003F594335A6C42F010025A645A6C02F0FA
:1027A00010020192019A02951A6B42F001021A631B
:1027B0001B6B03F001030293029B4FF4C06303936E
:1027C000022304930595032306930723079303A984
:1027D0001F4800F033FC1F481F4B03604FF000639D
:1027E00043608560C5604FF4806303614561856126
:1027F000C5610562456200F03BFA18BB154BA36347
:102800009C631648164B03604FF0006343604023FF
:1028100083600023C3604FF480620261436183617F
:10282000C3610362436200F023FA70B90B4B636328
:102830009C6300220321252000F044F9252000F0AC
:1028400075F9A0E7FFF726FED8E7FFF723FEEDE7CF
:1028500000000240380A002040640240980A00202C
:10286000B8640240014B1860704700BF340A002072
:1028700010B51348134B03604FF4E133436000235A
:102880008360C36003610C2242618361C36101F014
:10289000C1FB88B90A4C2268D36843F01003D360A7
:1028A000204601F0C5FF0848FFF7DCFF80220749FA
:1028B000204601F0A1FF10BDFFF7ECFDEAE700BFE5
:1028C000F80A00200010014069490008400B002070
:1028D00038B5044683680B44836003681B6801793C
:1028E00098476379834218D0054680B16369002018
:1028F0009847A368E2689B1A2269934203D96369E7
:102900000220984708E063690320984704E0636960
:1029100001209847A368E360657138BD38B5044667
:102920000D4603681B68017998476071656138BD81
:1029300010B50446436819444160DAB1012A1CD03D
:10294000237B002B3DD0637B022B19D0032B28D097
:10295000012B3ED1A368C91AB1F57A7F39D9236812
:102960001B6800221146204698476368A360022333
:1029700063732EE001230373E2E701230373DFE7B0
:10298000A368C91A42F21073994222D923681B68BE
:1029900001220021204698476368A36003236373E4
:1029A00017E0A368C91AB1F57A7F12D923681B68AA
:1029B00001220021204698476368A36001236373C6
:1029C00007E023681B680022114620469847012330
:1029D000637310BD10B504460E4B18784FF47A732C
:1029E000B3FBF0F30C4A1068B0FBF3F000F0ACF866
:1029F00068B90F2C01D901200AE0002221464FF0CE
:102A0000FF3000F05FF8054B1C60002000E0012063
:102A100010BD00BF040000200000002008000020BE
:102A200008B50B4B1A6842F400721A601A6842F437
:102A300080621A601A6842F480721A60032000F003
:102A40002FF80F20FFF7C6FFFFF788FD002008BD15
:102A5000003C0240034A1168034B1B780B4413608F
:102A6000704700BFC00B002004000020014B186815
:102A7000704700BFC00B002038B50446FFF7F6FFD3
:102A80000546B4F1FF3F02D0044B1B781C44FFF70E
:102A9000EDFF401BA042FAD338BD00BF0400002068
:102AA000074AD36823F4E0631B041B0C000200F404
:102AB000E060034343F0BF6343F40033D3607047E7
:102AC00000ED00E030B4174BDB68C3F30223C3F121
:102AD0000704042C28BF04241D1D062D18D9033B10
:102AE0004FF0FF3505FA04F421EA0401994005FA94
:102AF00003F322EA0303194300280BDB0901C9B2DF
:102B000000F1604000F5614080F8001330BC704770
:102B10000023E5E700F00F000901C9B2024B195488
:102B2000F4E700BF00ED00E014ED00E0002807DB53
:102B300000F01F02400901239340024A42F820306E
:102B4000704700BF00E100E00138B0F1807F0AD299
:102B5000064B5860064AF02182F823100020986046
:102B600007221A6070470120704700BF10E000E0A4
:102B700000ED00E030B405682C6824F480242C605B
:102B8000046863608368402B05D00368996003681C
:102B9000DA6030BC704703689A600368D960F8E770
:102BA00010B40368D9B210390B4AA2FB01421209D2
:102BB0000A4CA25CC2655F2908D923F47F7323F015
:102BC000030304338365806D10BC704723F47F7367
:102BD00023F003038365F6E7ABAAAAAA88F50008E9
:102BE000836A826992B9012B0AD0022B02D00BB101
:102BF00000207047C36A13F0807F28D100207047FF
:102C0000C36AB3F1C07F24D000207047B2F5005FE3
:102C100009D0022B25D9032B25D1C36A13F0807F5D
:102C200023D100207047032B03D8DFE803F01404FE
:102C3000140A00207047C36A13F0807F0DD1002072
:102C40007047C36AB3F1C07F09D0002070470120EC
:102C50007047012070470120704701207047012014
:102C60007047012070470020704701207047000026
:102C700070B50446FFF7FAFE002C5BD00546022330
:102C800084F83530002384F834302268136823F048
:102C90000103136023681A6812F0010F0AD0FFF7CE
:102CA000E5FE431B052BF5D920236365032084F83B
:102CB000350070BD1A68204810406168A2680A4358
:102CC000E1680A4321690A4361690A43A1690A4329
:102CD000E1690A43216A0A430243616A04291ED05A
:102CE0001A602668756925F00705636A1D43042B81
:102CF00007D1A36A1D43E36A1BB12046FFF770FFAB
:102D000090B975612046FFF74BFFE26D3F2393407A
:102D1000836000206065012384F83530C9E7E16AEB
:102D2000206B01430A43DBE740236365012084F8FD
:102D30003500BEE70120BCE73F8010F038B50446FF
:102D4000856D90F8340001282BD0012084F83400E0
:102D500094F83500C0B2012804D0002384F8343040
:102D6000022038BD022084F835000020606520462E
:102D7000FFF700FFE26D3F239340AB6022681368CA
:102D800043F016031360236C23B12268136843F0E9
:102D9000080313602268136843F0010313600020E6
:102DA000DFE70220DDE770B50446866DFFF75EFEC3
:102DB00094F83530DBB2022B06D080236365002304
:102DC00084F83430012070BD05462268136823F072
:102DD000160313602268536923F080035361236C48
:102DE000E3B12268136823F00803136022681368B4
:102DF00023F00103136023681B6813F0010F11D047
:102E0000FFF734FE431B052BF5D920236365032010
:102E100084F83500002384F83430D4E7A36C002B09
:102E2000DFD1E3E7E26D3F239340B360012384F8F1
:102E30003530002084F83400C5E790F83530DBB237
:102E4000022B03D08023436501207047052380F8BF
:102E500035300268136823F00103136000207047C7
:102E6000F0B583B0044600230193724B1D68724B8A
:102E7000A3FB0535AD0A876D3E68C26D08239340FC
:102E8000334210D003681A6812F0040F0BD01A688E
:102E900022F004021A60C26D08239340BB60436DA8
:102EA00043F001034365E26D01239340334209D0AF
:102EB0002268526912F0800F04D0BB60636D43F04A
:102EC00002036365E26D04239340334209D0226814
:102ED000126812F0020F04D0BB60636D43F004036C
:102EE0006365E26D10239340334224D02268126858
:102EF00012F0080F1FD0BB6023681A6812F4802FED
:102F00000DD01B6813F4002F04D1236C9BB1204615
:102F1000984710E0A36C73B1204698470BE01A68FD
:102F200012F4807F03D11A6822F008021A60236C21
:102F30000BB120469847E26D20239340334255D091
:102F40002268126812F0100F50D0BB6094F8353030
:102F5000DBB2052B0ED023681A6812F4802F33D011
:102F60001B6813F4002F2AD1636C002B3ED020463F
:102F700098473BE02268136823F016031360226829
:102F8000536923F080035361236CA3B12268136853
:102F900023F008031360E26D3F239340BB600123DD
:102FA00084F83530002384F83430236D002B3FD073
:102FB000204698473CE0A36C002BE7D1EBE7E36B9E
:102FC000A3B12046984711E01A6812F4807F09D116
:102FD0001A6822F010021A60012384F835300023A9
:102FE00084F83430E36B0BB120469847636DFBB136
:102FF000636D13F0010F17D0052384F83530226874
:10300000136823F001031360019B01330193AB426A
:1030100004D823681B6813F0010FF5D1012384F84D
:103020003530002384F83430E36C0BB120469847E8
:1030300003B0F0BD00000020B5814E1B00230F2B14
:1030400000F2DD80F0B482B05DE086685F000324AA
:10305000BC4026EA0406CC68BC4034438460466821
:1030600026EA02064C68C4F300129A4032434260DA
:1030700057E0DC08083450F8247003F0070296008B
:103080000F22B24027EA02070A69B2403A4340F8E9
:1030900024205AE0072200E00022B2403A430234E2
:1030A000574E46F82420574A9468EA4324EA050616
:1030B0004F6817F4801F01D045EA0406514CA66002
:1030C000E46802EA04064F6817F4001F01D045EADD
:1030D00004064C4CE660646802EA04064F6817F484
:1030E000003F01D045EA0406464C66602468224051
:1030F0004E6816F4803F01D045EA0402414C22603C
:1031000001330F2B78D801229A400C6804EA02059B
:1031100032EA0404F4D14C6804F00304013C012CAD
:1031200093D94A6802F00302032A09D0C4685E00FA
:103130000322B24024EA02048A68B2402243C260F9
:103140004A6802F00302022A93D004685E00032258
:10315000B24024EA02044A6802F00302B240224369
:1031600002604A6812F4403FCAD000220192264A07
:10317000546C44F480445464526C02F480420192D2
:10318000019A9C08A61C1E4A52F8267003F00302FE
:1031900096000F22B24027EA02071C4A90423FF4F1
:1031A0007BAF02F5806290421AD002F580629042B5
:1031B00018D002F58062904216D002F580629042EB
:1031C00014D002F58062904212D002F580629042E3
:1031D00010D002F5806290423FF45CAF08225CE7B9
:1031E00001225AE7022258E7032256E7042254E755
:1031F000052252E7062250E702B0F0BC7047704744
:1032000000380140003C014000380240000002400C
:103210000369194201D001207047002070470AB1AC
:10322000816170470904816170470000002800F047
:10323000DF8170B582B00446036813F0010F3BD004
:10324000A64B9B6803F00C03042B2CD0A34B9B686C
:1032500003F00C03082B21D06368B3F5803F4FD0F7
:10326000B3F5A02F52D09D4B1A6822F480321A6019
:103270001A6822F480221A606368002B50D0FFF78E
:10328000F5FB0546954B1B6813F4003F14D1FFF77F
:10329000EDFB401B6428F5D90320B0E18F4B5B6840
:1032A00013F4800FD8D08D4B1B6813F4003F03D06C
:1032B0006368002B00F09E81236813F0020F54D046
:1032C000864B9B6813F00C0F3ED0844B9B6803F039
:1032D0000C03082B33D0E368002B67D0804B01220E
:1032E0001A60FFF7C3FB05467C4B1B6813F0020F07
:1032F00053D1FFF7BBFB401B0228F5D903207EE129
:10330000764A136843F480331360B5E7734B1A6849
:1033100042F480221A601A6842F480321A60ABE7E5
:10332000FFF7A4FB05466D4B1B6813F4003FC3D0A9
:10333000FFF79CFB401B6428F5D903205FE1674B36
:103340005B6813F4800FC6D1644B1B6813F0020F47
:1033500003D0E368012B40F04F81604A136823F0EB
:10336000F803216943EAC1031360236813F0080FCF
:1033700040D0636963B35B4B01221A60FFF776FBB1
:103380000546564B5B6F13F0020F33D1FFF76EFB10
:10339000401B0228F5D9032031E1504A136823F07D
:1033A000F803216943EAC1031360DEE74C4B0022B6
:1033B0001A60FFF75BFB0546484B1B6813F0020FD2
:1033C000D3D0FFF753FB401B0228F5D9032016E1A9
:1033D000444B00221A60FFF749FB05463F4B5B6FE9
:1033E00013F0020F06D0FFF741FB401B0228F5D96E
:1033F000032004E1236813F0040F78D0374B1B6CD3
:1034000013F0805F0DD100230193344B1A6C42F00E
:1034100080521A641B6C03F080530193019B0125B9
:1034200000E00025304B1B6813F4807F21D0A36897
:10343000012B32D0052B36D0284B1A6F22F0010217
:103440001A671A6F22F004021A67A368002B34D09F
:10345000FFF70CFB0646214B1B6F13F0020F45D103
:10346000FFF704FB801B41F288339842F3D9032015
:10347000C5E01D4A136843F480731360FFF7F6FA42
:103480000646194B1B6813F4807FD0D1FFF7EEFA84
:10349000801B0228F5D90320B1E0104A136F43F0D6
:1034A00001031367D1E70D4B1A6F42F004021A674C
:1034B0001A6F42F001021A67C7E7FFF7D7FA06460C
:1034C000064B1B6F13F0020F10D0FFF7CFFA801BD3
:1034D00041F288339842F3D9032090E0003802404B
:1034E00000004742800E474200700040EDB9A369DA
:1034F000002B00F08380494A926802F00C02082AEF
:1035000051D0022B17D0464B00221A60FFF7AEFABB
:103510000446424B1B6813F0007F42D0FFF7A6FA27
:10352000001B0228F5D9032069E03C4A136C23F004
:1035300080531364DBE73A4B00221A60FFF796FAD8
:103540000546364B1B6813F0007F06D0FFF78EFA56
:10355000401B0228F5D9032051E0E369226A134396
:10356000626A43EA8213A26A5208013A43EA0243BA
:10357000E26A43EA0263294A5360294B01221A6036
:10358000FFF774FA0446254B1B6813F0007F06D141
:10359000FFF76CFA001B0228F5D903202FE000206A
:1035A0002DE000202BE0012B2BD01C4B5B6803F49B
:1035B0008001E269914226D103F03F02216A8A42EA
:1035C00023D1616A47F6C0721A40B2EB811F1ED147
:1035D00003F44031A26A5208013AB1EB024F18D10C
:1035E00003F07063E26AB3EB026F14D1002006E0CF
:1035F00001207047012002E0012000E0002002B01D
:1036000070BD0120FBE70120F9E70120F7E7012069
:10361000F5E70120F3E70120F1E700BF00380240A1
:1036200060004742F8B5244B9B6803F00C03042B61
:103630003DD0082B3DD1204B5A6802F03F025B6819
:1036400013F4800F12D01C4B5968C1F3881100236A
:103650001A48A1FB0001FCF78FFF174B5B68C3F30F
:10366000014301335B00B0FBF3F023E0124B5B68D6
:10367000C3F388135C010025E41A65F10005AE016F
:1036800046EA9466A701381B66EB0501CC0044EAC4
:103690005074C500E81844F100018B0243EA9053CE
:1036A0008402204619460023FCF766FFD5E703484D
:1036B00000E00348F8BD00BF0038024040787D01BB
:1036C0000024F400002800F09B8070B50D460446ED
:1036D0004F4B1B6803F007038B4208D2CBB24C4A16
:1036E0001370136803F007038B4240F08B8023684C
:1036F00013F0020F17D013F0040F04D0454A93685B
:1037000043F4E0539360236813F0080F04D0414A58
:10371000936843F4604393603E4A936823F0F00358
:10372000A1680B439360236813F0010F32D06368E4
:10373000012B21D09A1E012A25D9364A126812F08F
:10374000020F61D033498A6822F0030213438B6071
:10375000FFF78CF906462F4B9B6803F00C03626859
:10376000B3EB820F16D0FFF781F9801B41F288334B
:103770009842F0D9032042E0264A126812F4003F32
:10378000E0D101203BE0234A126812F0007FD9D13A
:10379000012034E01E4B1B6803F00703AB4207D93E
:1037A000EAB21B4B1A701B6803F00703AB422DD122
:1037B000236813F0040F06D0164A936823F4E053ED
:1037C000E1680B439360236813F0080F07D0114A98
:1037D000936823F46043216943EAC1039360FFF7D0
:1037E00021FF0C4B9B68C3F303130B4AD35CD840F7
:1037F0000A4B18600A4B1868FFF7ECF8002070BD00
:10380000012070470120FAE70120F8E70120F6E7E0
:10381000003C02400038024070F500080000002023
:1038200008000020014B1868704700BF000000200E
:1038300008B5FFF7F7FF044B9B68C3F38223034AE5
:10384000D35CD84008BD00BF0038024080F50008B6
:1038500008B5FFF7E7FF044B9B68C3F34233034A05
:10386000D35CD84008BD00BF0038024080F5000896
:1038700030B4036A056A25F001050562846924F005
:10388000F00444EA021423F00A030B438461036248
:1038900030BC704730B4056A25F0100505628469B4
:1038A000036A24F4704444EA023423F0A00343EA98
:1038B00001138461036230BC7047836823F0700396
:1038C0000B4343F0070383607047000090F83D30DE
:1038D000DBB2012B37D1022380F83D300268D36878
:1038E00043F00103D3600368194A934220D0B3F137
:1038F000804F1DD0A2F57C42934219D002F5806220
:10390000934215D002F58062934211D002F57842BD
:1039100093420DD002F57052934209D0A2F5943231
:10392000934205D01A6842F001021A6000207047E5
:103930009A6802F00702062A07D01A6842F00102CC
:103940001A6000207047012070470020704700BFB8
:10395000000001407047704770477047704710B5CE
:10396000044603681A6912F0020F11D0DA6812F0E7
:10397000020F0DD06FF002021A6101230377036872
:103980009B6913F0030F70D0FFF7E6FF0023237746
:1039900023681A6912F0040F12D0DA6812F0040FCB
:1039A0000ED06FF004021A610223237723689B690B
:1039B00013F4407F5FD02046FFF7CEFF002323772C
:1039C00023681A6912F0080F12D0DA6812F0080F93
:1039D0000ED06FF008021A61042323772368DB6995
:1039E00013F0030F4ED02046FFF7B6FF00232377D6
:1039F00023681A6912F0100F12D0DA6812F0100F53
:103A00000ED06FF010021A61082323772368DB6958
:103A100013F4407F3DD02046FFF79EFF002323771D
:103A200023681A6912F0010F03D0DA6812F0010F4F
:103A300036D123681A6912F0800F03D0DA6812F0C9
:103A4000800F34D123681A6912F0400F03D0DA686E
:103A500012F0400F32D123681A6912F0200F03D000
:103A6000DA6812F0200F30D110BDFFF774FF204646
:103A7000FFF773FF8AE72046FFF76DFF2046FFF749
:103A80006CFF9BE72046FFF766FF2046FFF765FFC8
:103A9000ACE72046FFF75FFF2046FFF75EFFBDE77C
:103AA0006FF001021A612046FFF754FFC1E76FF083
:103AB00080021A61204600F06EF9C3E76FF0400201
:103AC0001A612046FFF74AFFC5E76FF020021A612E
:103AD000204600F05FF9C7E70368304A904212D0F1
:103AE000B0F1804F0FD0A2F57C4290420BD002F58E
:103AF0008062904207D002F58062904203D002F5C6
:103B00007842904203D123F070034A681343234A5A
:103B100090422AD0B0F1804F27D0A2F57C4290424B
:103B200023D002F5806290421FD002F5806290425D
:103B30001BD002F57842904217D002F570529042A5
:103B400013D002F5806290420FD002F5806290425D
:103B50000BD0A2F59832904207D002F580629042D5
:103B600003D002F58062904203D123F44073CA6807
:103B7000134323F080034A69134303608B68C362D5
:103B80000B688362054B984203D003F5806398422B
:103B900001D10B69036301234361704700000140B9
:103BA00040B310B5044690F83D30F3B1022384F8D9
:103BB0003D30214651F8040BFFF78EFF012384F8B6
:103BC000463084F83E3084F83F3084F8403084F842
:103BD000413084F8423084F8433084F8443084F82B
:103BE000453084F83D30002010BD80F83C30FEF7B1
:103BF0009BFDDBE70120704710B4846824F47F4408
:103C000042EA03220A432243826010BC704790F8C4
:103C10003C30012B78D010B50446012380F83C30AD
:103C2000022380F83D300268936823F47F4323F039
:103C3000770393600B68602B4CD029D8402B54D06D
:103C40000CD9502B22D1CA6849680068FFF710FED2
:103C500050212068FFF731FE002005E0202B0DD019
:103C600009D9302B0AD00120012384F83D300023EC
:103C700084F83C3010BD0BB1102B05D119462068DB
:103C8000FFF71BFE0020EFE70120EDE70120EBE747
:103C9000B3F5805F34D0B3F5005F0CD1CB684A68D0
:103CA00089680068FFF7A8FF2268936843F480439F
:103CB00093600020D8E7702B24D1CB684A688968CC
:103CC0000068FFF799FF2268936843F077039360D9
:103CD0000020C9E7CA6849680068FFF7DBFD60217A
:103CE0002068FFF7EAFD0020BEE7CA68496800685F
:103CF000FFF7BEFD40212068FFF7DFFD0020B3E79E
:103D00000020B1E70120AFE70220704790F83C3077
:103D1000012B3BD030B4012380F83C30022380F8E3
:103D20003D3003685C689D6824F070040A68224393
:103D30005A600368164A93421AD0B3F1804F17D0E5
:103D4000A2F57C42934213D002F5806293420FD0D9
:103D500002F5806293420BD002F57842934207D07D
:103D600002F57052934203D0A2F59432934204D1EB
:103D700025F080054A6815439D60012380F83D3099
:103D8000002380F83C30184630BC70470220704752
:103D90000000014070477047026802F10C0353E8CD
:103DA000003F23F0C0030C3242E800310029F3D178
:103DB000202380F83D307047026802F10C0353E87D
:103DC000003F23F490730C3242E800310029F3D114
:103DD000026802F1140353E8003F23F00103143298
:103DE00042E800310029F3D1036B012B05D02023D9
:103DF00080F83E30002303637047026802F10C0331
:103E000053E8003F23F010030C3242E80031002950
:103E1000F3D1ECE790F83D30DBB2212B01D002204A
:103E200070478368B3F5805F17D0036A5A1C02623B
:103E30001A7803685A60C38C9BB2013B9BB2C3845F
:103E40004BB90268D36823F08003D3600268D3685B
:103E500043F04003D360002070470369002BE4D196
:103E6000036A1B880268C3F308035360036A0233C2
:103E70000362E0E770B504460268136923F4405317
:103E8000C1680B431361836802691343426913439A
:103E9000C2691A430168CB6823F4164323F00C036C
:103EA0001343CB600268536923F4407381690B4369
:103EB00053610368344A934206D002F5806293420C
:103EC00002D0FFF7B5FC01E0FFF7C2FCE369B3F5F0
:103ED000004F2AD00026051846EB06012D1846EBA8
:103EE0000101CB0043EA5573EA00154619466368A1
:103EF0009A009B0F281846EB0101FCF73DFB234D70
:103F0000A5FB00325109642303FB11031B0132336B
:103F1000A5FB03235B0903F0F00202EB011203F09F
:103F20000F03216813448B6070BD0026051846EB13
:103F300006012D1846EB0101CB0043EA5573EA0058
:103F40001546194662683346921846EB0303281853
:103F500046EB0101FCF710FB0C4DA5FB00325109AB
:103F6000642303FB1103DB003233A5FB03235B094E
:103F70005A0002F4F87202EB011203F00703216801
:103F800013448B60D0E700BF001001401F85EB5148
:103F90002DE9F84305460F4616469946DDF8208080
:103FA0002C68246837EA04030CBF01240024B442BF
:103FB0002DD1B8F1FF3FF3D0B8F1000F05D0FEF7D7
:103FC00055FDA0EB09004045EAD92A6802F10C032F
:103FD00053E8003F23F4D0730C3242E8003100294B
:103FE000F3D12A6802F1140353E8003F23F00103E0
:103FF000143242E800310029F3D1202385F83D3006
:1040000085F83E30002385F83C30032000E0002096
:10401000BDE8F88358B310B5044690F83D300BB3B3
:10402000242384F83D302268D36823F40053D360FE
:104030002046FFF71FFF2268136923F490431361A2
:104040002268536923F02A0353612268D36843F43A
:104050000053D36000202064202384F83D3084F88E
:104060003E3010BD80F83C30FEF77EFBD8E70120E3
:1040700070472DE9F04182B01E4690F83D30DBB22A
:10408000202B54D104460D469046002953D0002AD7
:1040900053D090F83C30012B51D0012380F83C30B4
:1040A00000230364212380F83D30FEF7DFFC074640
:1040B000A4F82480A4F82680A368B3F5805F05D017
:1040C0004FF00008002384F83C3012E0236913B15C
:1040D0004FF00008F6E7A8460025F3E738F8023B62
:1040E0002268C3F308035360E28C92B2013A92B2A1
:1040F000E284E38C9BB273B100963B4600228021A0
:104100002046FFF745FFE0B9002DE7D015F8012B59
:1041100023685A60E8E700963B460022402120468B
:10412000FFF736FF78B9202384F83D3000E0022005
:1041300002B0BDE8F0810120FAE70120F8E7022093
:10414000F6E70320F4E70320F2E72DE9F04182B01F
:104150001E4690F83E30DBB2202B5CD104460D4663
:10416000904600295BD0002A5BD090F83C30012BB0
:1041700059D0012380F83C3000230364222280F8C8
:104180003E200363FEF772FC0746A4F82C80A4F8D7
:104190002E80A368B3F5805F05D04FF000080023A0
:1041A00084F83C3017E0236913B14FF00008F6E7BC
:1041B000A8460025F3E723685B68C3F3080328F8E3
:1041C000023B03E023685B682B700135E28D92B2FD
:1041D000013A92B2E285E38D9BB2BBB100963B46B9
:1041E000002220212046FFF7D3FEF0B9002DE2D0B7
:1041F000A368B3F5805FE5D013B92369002BE1D044
:1042000023685B6803F07F032B70DEE7202384F8CC
:104210003E30002000E0022002B0BDE8F081012025
:10422000FAE70120F8E70220F6E70320F4E710B5EB
:10423000044603685A6990F83D30DBB2212B0AD05E
:1042400023685A6902F0400294F83E30DBB2222B18
:1042500019D0002010BD02F08002002AF0D02268A0
:1042600002F1140353E8003F23F08003143242E8C4
:1042700000310029F3D1606B08B1FEF794FD2046B0
:10428000FFF78AFDDCE7002AE3D0226802F114037D
:1042900053E8003F23F04003143242E80031002984
:1042A000F3D1A06B08B1FEF77EFD2046FFF784FD39
:1042B000CFE7704708B50168CA6822F04002CA60BB
:1042C000202280F83D20FFF7F4FF002008BD704752
:1042D0007047704710B5846B23685A6994F83D3075
:1042E000DBB2212B10D023685A6902F0400294F807
:1042F0003E30DBB2222B11D0236C43F01003236439
:104300002046FFF7E6FF10BD02F08002002AEAD047
:104310000023E3842046FFF73FFDE4E7002AEBD0CB
:104320000023E3852046FFF747FDE5E708B5806BEE
:104330000023C385C384FFF7CCFF08BD704790F806
:104340003E30DBB2222B67D18368B3F5805F4DD05E
:10435000826AB3F5805F04D0002B54D10369002B2F
:1043600051D103685B681370836A01338362C38D24
:104370009BB2013B9BB2C385002B4FD100B583B0EC
:104380000268D36823F02003D3600268D36823F463
:104390008073D3600268536923F0010353612023C3
:1043A00080F83E30036B012B33D100230363026896
:1043B00002F10C0353E8003F23F010030C3242E8F3
:1043C00000310029F3D103681A6812F0100F06D0EB
:1043D000002201921A6801925B680193019B818D12
:1043E000FFF7ACFF002003B05DF804FB0269002A70
:1043F000AED1826A03685B68C3F308031380836AE3
:1044000002338362B3E703685B6803F07F031370D2
:10441000AAE7FFF75CFFE5E702207047002070473E
:1044200030B583B0044602681368D068516913F050
:104430000F0505D113F0200F02D010F0200F19D175
:104440002DB111F0010119D110F4907F16D1216B1B
:1044500001297DD013F0800F03D010F0800F40F0C1
:10446000158113F0400F03D010F0400F40F012817F
:1044700003B030BD2046FFF762FFF9E713F0010FEC
:1044800006D010F4807F03D0226C42F00102226437
:1044900013F0040F04D019B1226C42F0020222641E
:1044A00013F0020F04D019B1226C42F0040222640E
:1044B00013F0080F07D010F0200F00D119B1226CB3
:1044C00042F008022264226C002AD1D013F0200F9F
:1044D00002D010F0200F29D123685B6903F040035C
:1044E000226C12F0080F00D163B32046FFF764FC82
:1044F00023685B6913F0400F20D0226802F1140397
:1045000053E8003F23F04003143242E80031002911
:10451000F3D1A36B73B1614A1A65A06BFEF78DFCF2
:104520000028A5D0A06B036D9847A1E72046FFF7B0
:1045300006FFD1E72046FFF7CCFE99E72046FFF7BC
:10454000C8FE95E72046FFF7C4FE002323648FE7EB
:1045500013F0100F3FF47EAF10F0100F3FF47AAF5E
:10456000002301931368019353680193019B5369DE
:1045700013F0400F50D0A26B13685B689BB2002B06
:104580003FF476AFA18D99427FF672AFE385D36990
:10459000B3F5807F37D0226802F10C0353E8003F67
:1045A00023F480730C3242E800310029F3D12268F1
:1045B00002F1140353E8003F23F00103143242E8F0
:1045C00000310029F3D1226802F1140353E8003FBF
:1045D00023F04003143242E800310029F3D12023B4
:1045E00084F83E3000232363226802F10C0353E871
:1045F000003F23F010030C3242E800310029F3D1D0
:10460000A06BFEF7D0FBA18DE38D9BB2C91A89B2D6
:104610002046FFF793FE2BE7A18DE38D9BB2C91ACD
:1046200089B2E38D9BB2002B3FF422AF00293FF407
:104630001FAF226802F10C0353E8003F23F490738C
:104640000C3242E800300028F3D1226802F1140352
:1046500053E8003F23F00103143242E80030002801
:10466000F3D1202384F83E3000232363226802F133
:104670000C0353E8003F23F010030C3242E80030F3
:104680000028F3D12046FFF759FEF1E62046FFF758
:10469000C1FBEDE62046FFF70DFEE9E62D430008DD
:1046A00008B5806B036B012B02D0FFF711FE08BD2C
:1046B000818D4908FFF742FEF9E708B50346806B94
:1046C0001B681B6813F4807F2BD10023C38502680D
:1046D00002F10C0353E8003F23F480730C3242E8EC
:1046E00000310029F3D1026802F1140353E8003FBE
:1046F00023F00103143242E800310029F3D10268AB
:1047000002F1140353E8003F23F04003143242E85F
:1047100000310029F3D1202380F83E30036B012BB8
:1047200005D0036B012B0FD0FFF7D1FD08BD026848
:1047300002F10C0353E8003F23F010030C3242E86F
:1047400000310029F3D1ECE7818DFFF7F7FDEDE7AC
:1047500030B583B004461346816282850025056426
:10476000222280F83E20826B2048D063A26B204832
:104770001064A26B1F48D064A26B156520680A46BE
:10478000011DA06BFEF7DAFA019523681A68019201
:104790005B680193019B84F83C5023695BB12268FC
:1047A00002F10C0353E8003F43F480730C3242E8FB
:1047B00000310029F3D1226802F1140353E8003FCD
:1047C00043F00103143242E800310029F3D122689A
:1047D00002F1140353E8003F43F04003143242E86F
:1047E00000310029F3D1002003B030BDBB460008E2
:1047F000A1460008D542000808B590F83E30DBB26B
:10480000202B0DD171B17AB190F83C30012B0DD035
:10481000012380F83C3000230363FFF799FF00E099
:10482000022008BD0120FCE70120FAE70220F8E79A
:1048300008B5054B1860054B18680023022219467D
:10484000806800F07FFE08BDC40B00201C00002023
:10485000022801D80120704708B500F0A7FA092303
:104860000360002008BD0000013801280AD810B5F7
:1048700014464FF0FF3392B204480068FFF7F9FB8B
:10488000204610BD4FF0FF30704700BFC40B002022
:10489000022801D80020704708B500F087FA0923E4
:1048A00003604FF0FF3008BD08B500F07FFA092320
:1048B00003604FF0FF3008BD08B548B94FF0FF3333
:1048C000012208480068FFF740FC40B9012008BDFC
:1048D00000F06CFA092303604FF0FF30F7E7052082
:1048E000F5E700BFC40B002008B5022804D84FF438
:1048F00000534B60002008BD00F058FA0923036004
:10490000F8E70000054B196808331B681944044B8D
:10491000588840EA0140090C704700BF107AFF1F19
:10492000147AFF1F012901D00020704708B54FF409
:1049300000410448FEF76CFC012814BF0020012050
:1049400008BD00BF0008024051B908B50B4602B9C6
:1049500001231A464FF480710248FEF760FC08BD3F
:10496000704700BF0008024000B585B00378702B87
:1049700030D0762B19D0632B02D005B05DF804FB44
:1049800003AA1F4900F0FAFE00280ADD0128F4D12D
:104990000398FBF799FD02460B461A4800F056FDB6
:1049A000EBE7194800F0B4FDE7E701AA174900F06A
:1049B000E5FE00280ADD0128DFD10198FBF784FD20
:1049C00002460B46124800F041FDD6E7114800F0C0
:1049D0009FFDD2E702AA104900F0D0FE00280ADDB0
:1049E0000128CAD10298FBF76FFD02460B460B481F
:1049F00000F02CFDC1E70A4800F08AFDBDE700BFCA
:104A0000FCF5000828F6000804F6000840F6000847
:104A10006CF6000848F6000884F60008B0F60008B6
:104A20008CF60008012800D070474FF6FF739942BA
:104A3000FAD1074B01221A7100225A719A60DA608A
:104A400040F2DC5119615A61024A1A60ECE700BF7A
:104A5000C80B0020C4F5000808B5022802D00328BE
:104A600004D008BD034800F053FDFAE7024800F007
:104A70004FFDF6E7C8F60008DCF6000808B5FFF7BA
:104A800041FF02460B46074800F0E0FC0649074894
:104A9000FDF744FF6420FDF7EFFF0548FEF716FF22
:104AA00008BD00BFECF60008594A0008C80B0020FA
:104AB000EC09002008B5074B1B686FF001021A6172
:104AC0000A210548FDF704FF0022C8210348FDF72D
:104AD0002FFF08BDEC090020C80B00200C000020AF
:104AE00008B54FF6FF710120FFF79CFF08BD0000DD
:104AF000DFF834D00D480E490E4A002302E0D458A6
:104B0000C4500433C4188C42F9D30B4A0B4C002315
:104B100001E013600432A242FBD3FDF7CBFD00F0AD
:104B20004BF9FDF70BFD704700000220000000204C
:104B3000CC090020A8FD0008CC0900203C0C002076
:104B4000FEE7000070B5036884B000249E690094FD
:104B50001023CDE9023415466B4612688DF80440E7
:104B6000B0479DF8043003F00603062B03BF009BFB
:104B70002B600120204604B070BD00BF0098904219
:104B800014BF01200620704710B5034B0360044694
:104B900000F0E8F8204610BD34F7000810B5054BCA
:104BA0000360044600F0DEF82046082100F04AF8D1
:104BB000204610BD34F700082DE9F041DDE9081565
:104BC000069F8F4290461E4604460CD03146204632
:104BD00000F0CCF820B101232F6085F80480AB7180
:104BE0000020BDE8F081079900F0C0F80028EDD062
:104BF00085F805800020BDE8F08100BF38B5154676
:104C00001C4600F0B3F800B938BD08220623256021
:104C1000E260237138BD00BF2DE9F04116461D4604
:104C200007460C4600F0A2F848B9032D07D82368C0
:104C30003246394620465B69BDE8F0411847BDE879
:104C4000F08100BF00F0A8B810B5034B0360044624
:104C5000FFF79AFF204610BD94F7000810B5054BEA
:104C600003600446FFF790FF20460C21FFF7EAFFA0
:104C7000204610BD94F7000870B582B00D46069E20
:104C80009642044609D0A06804680696246A29461C
:104C9000A44602B0BDE870406047194601920093F7
:104CA00000F064F8DDE900320028ECD0062002B004
:104CB00070BD00BF2DE9F04F0D4681B01946DDE90A
:104CC0000A8BDDE90CA91C461646074600F04EF893
:104CD00080B9D04527D0B8680768CDE90CA9CDE9DF
:104CE0000A8B2346FC6932462946A44601B0BDE83A
:104CF000F04F6047002DC9F8008089F804600CDB94
:104D00004544AA450CBF4FF0060A4FF0010A89F846
:104D100006A0002001B0BDE8F08F0235F9D10123D3
:104D200089F80630F5E75946384600F01FF80028A4
:104D3000D1D089F80560ECE72DE9F04106460F4631
:104D400014461D46FFF75AFF48B9B0680668224668
:104D5000B4692B463946A446BDE8F0416047BDE83A
:104D6000F08100BF704700BF00207047814211D022
:104D700008B5406803782A2B0AD049680B782A2B9B
:104D800008BF0131FCF770FDB0FA80F0400908BDA2
:104D9000002008BD0120704700F03AB808B5062091
:104DA00000F0CCFC0120FDF761FC00BF014B18684E
:104DB000704700BF1C00002070B50D4E0D4D761BD6
:104DC000B61006D0002455F8043B01349847A6429B
:104DD000F9D1094E094D761B0AF0BCFBB61006D07E
:104DE000002455F8043B01349847A642F9D170BD20
:104DF00098FD000898FD0008A4FD000898FD000833
:104E0000024B0146186800F00BB800BF1C000020E0
:104E1000024B0146186805F093B800BF1C00002043
:104E20002DE9F04F01F10B05162D83B0064624D86D
:104E3000102900F2B78000F0FDFA10250221182396
:104E4000DFF8F0844344A3F108025C68944200F068
:104E5000B580636823F003032344D4E902515A6800
:104E6000E96042F0010230468D605A6000F0E8FAD5
:104E70000834204603B0BDE8F08F35F0070500F197
:104E80009180A94200F28E8000F0D4FAB5F5FC7F43
:104E9000C0F090816B0A00F08C80042B00F26681D8
:104EA000AB0903F1390103F13807CB00DFF8848443
:104EB0004344A3F108005C68A04206D10CE0002A3C
:104EC00080F22281E468A04206D0636823F00303E5
:104ED0005A1B0F2AF3DD3946D8F81040DFF858C4C2
:104EE000644577D0626822F00302531B0F2B00F356
:104EF0006F81002BC8E904CC80F26081B2F5007F9D
:104F000080F01081D3080133500901228240D8F883
:104F1000040058F83370A76008EBC30E0243AEF1EB
:104F20000800E060C8F8042048F83340FC608B10AB
:104F300001209840904254D8104206D121F003013C
:104F40004000104201F10401FAD008EBC1094C46BF
:104F50008E46E768BC4207D114E1002B80F21B812A
:104F6000FF68BC4200F00E817A6822F00302531BF6
:104F70000F2BF2DDD7E902E4791945F001057D60D8
:104F800043F00105CEF80C403046C4F808E0C8E90B
:104F90000411C1E902CC4D60BB5000F051FA07F199
:104FA000080402E00C2333600024204603B0BDE86F
:104FB000F08F4FF4007340213F2777E7DC68A3426E
:104FC00008BF02317FF445AFD8F81040DFF868C35E
:104FD000644587D1D8F804208B1001209840904276
:104FE000AAD9D8F80840676827F00307BD4202D85D
:104FF0007B1B0F2B77DCDFF84493CA4BD9F80020DA
:105000001B6801322B4404EB070A00F02E8103F5E4
:1050100080530F3323F47F6B2BF00F0B5946304630
:1050200000F07EFA411C024600F0EB80824500F25F
:10503000E680BD4B196859441960084600F04B8161
:10504000D9F80010019301311BBFA2EB0A0A5044AA
:10505000C9F80020186012F0070A00F01481CAF1A4
:1050600008010A44CAF5805193440831A1EB0B01B1
:10507000C1F30B0949463046009200F051FA421C38
:10508000DDE9002300F05C81801A00EB090B196850
:10509000C8F808204BF001004944444550601960AD
:1050A00000F026810F2F40F2258160680C3F27F029
:1050B000070700F0010004EB070C38434FF0050E22
:1050C0000F2F6060CCE901EE00F242815068144677
:1050D000964B1A688A4238BF1960954B1A688A4203
:1050E00038BF196090E0621943F0010345F00105F3
:1050F00065603046C8F80820536000F0A1F9083414
:10510000204603B0BDE8F08F2344E1685A68A568E3
:1051100042F00102E96030468D605A6000F090F97B
:10512000083442E7B2F5206F4FEA522361D3142BC3
:1051300000F2BA8003F15C00C0005B3308EB0007AB
:1051400058F80000083F874200F09280436823F03F
:105150000303934202D980688742F7D1C768D8F821
:105160000420C4E90207BC60C460E0E6142B59D9EE
:10517000542B00F2A1802B0B03F16F0103F16E079A
:10518000CB0093E60EF1010E1EF0030F04F10804AC
:105190007FF4DFAE51E03A443C465368F96854F876
:1051A000085F43F0010353603046E9608D6000F012
:1051B00047F9FAE6E90805F1080341E622443046DA
:1051C000536843F001035360083400F039F9ECE60A
:1051D000611943F0010745F0010565603046C8E9F3
:1051E0000411C1E902CC4F60A35000F029F9083442
:1051F000DBE6930903F13900C00038339EE74445EC
:1052000064D0D8F80840606820F0030B5D45ABEB34
:10521000050302D80F2B3FF766AF304600F010F9B8
:105220000024C2E603F15C0103F15B07CB003DE61D
:1052300059F808394B4540F0AA8011F0030F01F1ED
:10524000FF31F5D1D8F8043023EA0003C8F8043060
:10525000400098423FF6C5AE18B9C2E640000EF1D4
:10526000040E1842FAD071466FE603F1100BD5E632
:105270009A104FF0010ED8F804300EFA02F21A43D9
:10528000C8F804206DE702EB0B014942C1F30B099A
:1052900049463046009200F043F9431CDDE9002303
:1052A0007FF4F2AED146F2E6542B26D8130B03F16D
:1052B0006F00C0006E3341E7B3F5AA7F26D8EB0B31
:1052C00003F1780103F17707CB00EFE5164B18687F
:1052D00058441860B4E6CAF30B0CBCF1000F7FF41D
:1052E000AFAED8F80840BB444BF001006060EFE679
:1052F0001446EDE6012353608FE7B3F5AA7F33D858
:10530000D30B03F17800C000773317E740F2545213
:10531000934233D8AB0C03F17D0103F17C07CB0042
:10532000C4E500BF100C0020E00B0020080C00209A
:105330000C0C0020480400205004002050080020DD
:10534000AAF1080AD344ABEB020B4FF000099EE62A
:1053500004F108013046009304F0F2FDD8F808404B
:10536000009B60681968B3E640F2545083420AD843
:10537000930C03F17D00C0007C33DFE64FF47E73B5
:105380007F217E2792E54FF47E707E23D6E6D8F803
:1053900004305DE7F0B4860746D0541E002A3CD0A6
:1053A000CAB2034601E0013C37D303F8012B9D0745
:1053B000F9D1032C2AD9CDB245EA05250F2C45EAAF
:1053C000054534D9A4F1100222F00F0C03F1200797
:1053D0001609674403F1100242E9045542E90255F7
:1053E0001032BA42F8D1721C14F00C0F03EB021207
:1053F00004F00F0613D0331F23F0030304331344C8
:1054000042F8045B9342FBD106F003042CB1CAB20C
:105410001C4403F8012B9C42FBD1F0BC704734467E
:105420001346002CF3D1F8E714460346C1E71A46A9
:105430002646E0E7014805F037B800BF240C0020FD
:10544000014805F033B800BF240C00200FB400B5AC
:10545000074983B004AB086853F8042B81680193B3
:1054600001F04EFD03B05DF804EB04B0704700BFDF
:105470001C00002070B5054688B008460C46FCF7B5
:105480005FFB224AAB6B04940126441C04A90692DC
:1054900002220394CDE90112AC680590079623B36C
:1054A000636E13F0010FB4F90C309AB201D1980574
:1054B00025D5910406D4626E43F4005322F40052C1
:1054C000A3816266284601AA214604F03DFE636E70
:1054D000002814BF4FF0FF350A25DA0702D4A3894C
:1054E0009B0506D5284608B070BD284604F08CFC04
:1054F000D6E7A06D04F0DAFF284608B070BDA06DB5
:1055000004F0D2FFB4F90C309AB2D2E73CF60008AE
:10551000024B01461868FFF7ADBF00BF1C0000201A
:1055200038B5074D0022044608462A60FDF7A4F866
:10553000431C00D038BD2B68002BFBD0236038BD46
:10554000380C00202DE9F043654CD4F8009083B06E
:1055500004460F4690461E46B9F1000F03D0D9F815
:105560003830002B79D0B8F1020F06D0B8F1010F16
:1055700000F2A480002EC0F2A180636ED90752D53C
:105580002146484604F0E4FB216B41B104F140039D
:10559000994202D0484604F0D3FC00232363B4F9B7
:1055A0000C500023A36163602B0665D425F44A6583
:1055B00025F00305B8F1020FA58164D001AB6A465E
:1055C0002146484604F08AFFA3891843A081002E93
:1055D00030D0002F2FD0D9F83830002B39D0009B95
:1055E0002760B342B4F90C301CBF43F40063A381BD
:1055F000B8F1010F04BF43F00103A3819AB213F085
:105600000803C4E904762CD0D10755D57642A661AB
:10561000666E002116F00106A16027D000263046F4
:1056200003B0BDE8F083A3899A05A9D4A06D04F066
:105630003BFFA5E7009E3046FFF7E2FB0746002848
:105640003FD0A38943F08003A381D9F83830002BE1
:10565000C5D1484604F0D8FBC1E7484604F0D4FB66
:1056600081E7A360666E16F00106D7D193051CD5BD
:10567000304603B0BDE8F0832169484604F060FC81
:10568000B4F90C5092E70026626E002104F1430346
:1056900045F00205A160D7074FF00101C4E90431CC
:1056A000A5812360E4D4A805E2D4A06D04F0FEFE39
:1056B000304603B0BDE8F083A660D3E74FF0FF3675
:1056C000D6E7009DB54204D02846FFF799FB074670
:1056D00020B9B4F90C504FF0FF36D5E72E46B0E7AD
:1056E0001C0000201F2938B5054621D8D0F8DC223F
:1056F0000C466AB152F8213053B1012B16D0591C17
:1057000010D00025204642F824509847284638BD3E
:10571000284600F031F8224601462846BDE83840C8
:1057200000F014B816230360012038BD002038BDF6
:10573000162303604FF0FF3038BD00BF024B014617
:105740001868FFF7CFBF00BF1C00002038B50C461B
:10575000084D03461146204600221C462A60FCF7ED
:105760007DFF431C00D038BD2B68002BFBD023608D
:1057700038BD00BF380C0020FCF76EBF0EB470B50A
:105780009DB021AC4FF4017254F8045BADF81420C5
:1057900002900690FCF7D4F90C4B019401462A467E
:1057A000039107910A4E18680A9623464FF6FF7533
:1057B000002402A90E941394ADF8165000F052F88C
:1057C0001DB0BDE8704003B0704700BF1C00002052
:1057D000F957000810B50C46B1F90E1005F02CFC75
:1057E000002803DB236D0344236510BDA38923F444
:1057F0008053A38110BD00BF002070472DE9F04108
:10580000B1F90C509846EB050C46174606460BD4EA
:1058100025F48055B4F90E10A58143463A4630462A
:10582000BDE8F04103F070B9B1F90E100223002277
:1058300004F03EFEB4F90C50EAE700BF10B50C4688
:10584000B1F90E1004F034FEA389421C0EBF23F4FC
:10585000805343F480532065A38110BDB1F90E102D
:1058600003F0E0B92DE9F04FADF5317D8B46B1F98C
:105870000C1002AF814688047B6209D4DBF86430E7
:1058800041F4005123F40053ABF80C10CBF8643012
:10589000134613F8012BFB637A64002A01F02E8172
:1058A0000023FB61BB637B613B629A467B63884B51
:1058B0009C5C14F0080440F0A980252A40F0838005
:1058C000F86B027825462646A2F12503411C552B8C
:1058D0006AD8DFE813F077006900690069006900A1
:1058E000180569006900690069006900C100C1000C
:1058F000C100C100C100C100C100C100C100C100A0
:105900006900690069006900690069006900CC00EC
:105910006900A804B004CC00CC00CC006900690088
:1059200069006900670469006900C20469006900D0
:105930006900A204690069006900690070046900D7
:105940006900CC0469006900690069006900CC0045
:105950006900AA04B204CC00CC00CC0003050F05FA
:1059600067046900D704E304F104AE06000569008A
:105970006900A4046304BA04690069007004690042
:1059800063045946484607F005F9002800F0D38122
:10599000002E00F0AD877B6B002B00F02987BBF851
:1059A0000C305A0600F12487BB6B2BB1BB6B1E6811
:1059B00016B13046FFF72CFA786B07F52F77BD4606
:1059C000BDE8F08FF963DBF80430002B3DDDDBF838
:1059D0000030FA6B197812F8012C9142E4D1DBF80F
:1059E00004200133013ACBF800300AF1010ACBF868
:1059F0000420FB6B13F8012BFB637A64002AD3D0DD
:105A0000334B9C5C14F008043FF457AFDBF80420E0
:105A100012E0DBF800302E491A788A5C12F0080F89
:105A200003F10103E5D0DBF80420CBF80030013AA4
:105A30000AF1010ACBF80420002AEADC594648465C
:105A400007F0A8F80028E4D0D3E75946484607F005
:105A5000A1F80028BBD09EE715F08F0FA4D106EB6C
:105A6000860602EB4606303E427808462CE7F9638C
:105A70004FF00408DBF80430002B40F3AA836A06D9
:105A800011D508F1FF33032B00F25086DFE813F045
:105A90006501C400200222005946484607F07AF802
:105AA00000287FF478AFDBF8002013780849CB5C3E
:105AB0001B07E6D5DBF80430013B002B0AF1010A95
:105AC000CBF8043002F10102E6DDCBF80020ECE770
:105AD00065F80008484604F0DFFC731E0268FA60AF
:105AE000B3F5AE7F40F25A846FF4AE72B3187B60A8
:105AF00040F25D16002307F5AC72BB623B60BB60F1
:105B00003B633B615B46BA61A34645F4F065904652
